:040000008A01332816
:08000800F500F50E030EF600F1
:10001000040EF7000A0EF8008A01FC00030E83129A
:100020000313FE000B082439003C031D2B208A110A
:100030000A127E0E8300FC0E7C0E780E8A00770E6C
:100040008400760E8300750E090075288F28A0287D
:10005000E028EC280E29D029832AA82AB22ACC2A03
:10006000082B1A2B722B013083120313C900CA010B
:10007000FF30CC000130CD00A001A101A201A301FD
:10008000A401A501A601A7018030A8008030A90025
:100090008030AA008030AB008030AC008030AD00F2
:1000A000AE01AF01CE01D001D101BE01BF01C0013F
:1000B000C101D201D30130208A110A120A30831201
:1000C0000313D40025208A110A1228208A110A124B
:1000D0008B173F3083120313CC0083169F012E2011
:1000E0008A110A1232208A110A1283120313940110
:1000F0008C0183168C120C120708C03887008312FB
:100100005408831699002430980090308312980088
:100110001A08C7001A08C7001A08C7000800831287
:1001200003130C081039FF390130031D0030003C67
:1001300003199B288F288312031355089900080080
:10014000013083120313C200C30183120313420858
:10015000013C0319AD280030B4288312031343086F
:10016000003C0130031D0301003C0319DE2883120B
:100170000313C201C301981CC92818121A08C7002A
:100180001A08C7001A08C70018160130C200C301B8
:10019000A52883120313181DD3281A08C70001309D
:1001A000C200C301DD28831203138C1EDD281A0848
:1001B000C7001A08C80000300800A5280130080050
:1001C000843083160313810088018B160130FA00F6
:1001D00029208A110A120800B930FB000000000033
:1001E000000000000000000000000000000000000F
:1001F00000000000000000000000000000000000FF
:100200000000000000000000000000000000FB0BE8
:10021000EF280000FA0BEC280000080083120313FB
:100220005608203E840083130008003C0130031D63
:100230000301003C03191F2900300800C82983125C
:1002400003135608203E840083130008F000831235
:1002500003135608283E84008313000870020130FF
:1002600003180301003C0319742983120313560871
:10027000283E840083130008F000831203135608FD
:10028000203E840083130008700283120313D700FA
:1002900004305702013003180301003C03195F29A1
:1002A0005608203E840083130008F00083120313D5
:1002B0005608283E8400700883138000C8298312E2
:1002C00003135608283E840083130008043CF00002
:1002D0007009013EF000831203135608283E840083
:1002E000700883138000C829831203135608283E20
:1002F000840083130008F000831203135608203E85
:100300008400831300087002013003180301003CCD
:100310000319C829831203135608203E840083134F
:100320000008F000831203135608283E840083134C
:100330000008700283120313D70004305702013003
:1003400003180301003C0319B4295608203E840019
:1003500083130008F000831203135608283E84001C
:10036000700883138000C829F00183120313560814
:10037000283E840083130008043E0318F00AF000AE
:10038000831203135608283E8400700883138000EC
:10039000831203135608283E8400831300080800C4
:1003A000831203134E104908013C0130031D030161
:1003B000003C03193C2A4A08053C0130031D030197
:1003C000003C0319EE294A08D6002A208A110A1295
:1003D00083120313CB008C3081001B2A831203137A
:1003E0004A08043C0130031D0301003C0319032AA1
:1003F0004A08203E84008313000883120313CB00B5
:10040000963081001B2A831203134A08D6002A2043
:100410008A110A1283120313CB00F0018C30F10011
:100420004B08FF3CF200F20CF20C720C1F39710702
:100430000318F00A8100831203134B08003C0130BB
:1004400003190301FF3903192F2A4C084D05003CFD
:10045000013003190301FF3903192F2A0130003C31
:100460000319362A831203134D08880402308312BD
:100470000313C9004E14812A831203134908023C56
:100480000130031D0301003C03194C2A4B08FF3CBB
:1004900081000330C900812A831203134908033CF9
:1004A0000130031D0301003C0319812A4C084D054E
:1004B000003C013003190301003C0319612A4D0976
:1004C0008805831203134B088100F0014A08013E9E
:1004D0000318F00ACA004A080739CA004D08F0009C
:1004E000700DFE39CD004D08003C0130031D0301A5
:1004F000003C03197D2A0130CD0001308312031323
:10050000C9000B110800831203135808F300F30D00
:10051000F30D730DF83938399F0089309F040C3082
:10052000C6002D208A110A120430831203139F047F
:10053000831203131F1D9D2A982A0430831203136C
:10054000C6002D208A110A12831203131E08080008
:10055000023083120313C60200000000C60BAC2A4F
:10056000000008008312031397019D019101FF30E1
:1005700083169200831295019B0183160708D839D0
:100580008700861005123C308312CF004F08970079
:100590004F089D0012150800831203135908003CF0
:1005A0000130031D0301003C0319EA2A5A08003CEC
:1005B0000130031D0301003C0319E12A8716861050
:1005C000E52A8312031387128614831203135B0830
:1005D0009500072B831203135908013C0130031DBA
:1005E0000301003C0319072B5A08003C0130031D8E
:1005F0000301003C0319FF2A07140512032B831281
:10060000031307100516831203135B089B000800F1
:100610000130FF3C043CF3007309013E83120313D5
:10062000DC005C088316860583125C088605831649
:1006300088010800831203135D08003C0130031D8C
:100640000301003C03192A2B06110130D100C0011F
:10065000C1012D2B831203130615831203135108B6
:1006600003196C2B0530D8002C208A110A12831232
:100670000313D3000130FA0029208A110A12013035
:1006800083120313D8002C208A110A128312031339
:10069000D2005D08D50026208A110A1283120313A6
:1006A0005208D50026208A110A1283120313530818
:1006B000D50026208A110A12F301831203135D0864
:1006C00052070318F30A5307F4000318F30A7408D7
:1006D000D50026208A110A1283120313D001BE010D
:1006E000BF01080083120313DE01C401C5010130FC
:1006F0008316890002308312890427208A110A1286
:10070000003C0319AB2B831203135008003C01304B
:1007100003180301003C0319AF2C3F08003C0130D3
:10072000031C9A2B0030031D9A2B3E08F53C013028
:100730000318030183120313BE0A0319BF0A003C06
:100740000319AA2B0130DD0031208A110A1283120D
:100750000313D001AF2C831203134808F300500891
:10076000D00A303E84007308831380008312031381
:1007700050080E3C0130031D0301003C0319AF2C4F
:100780003008703C013003190301FF39031DD02BE1
:100790003108473C013003190301FF390319D12BFC
:1007A0000130FF39031DDE2B831203133208683C2E
:1007B000013003190301FF390319DF2B0130FF3921
:1007C000031DEC2B831203133D084E3C013003192B
:1007D0000301FF390319ED2B0130003C0319F82BFD
:1007E000023083120313DD0031208A110A127D2B9F
:1007F00083120313DF010330E0000C308312031374
:100800006002013003180301003C0319172CF301A7
:100810005F08F4006008303E84008313000874070A
:100820000318F30A83120313DF00E00AFD2B83127F
:1008300003133C085F02013003190301003C031954
:10084000272C0330DD0031208A110A127D2B831200
:100850000313DD0131208A110A12831203133308B6
:10086000003C0130031D0301003C03193E2CD9015B
:10087000DA01DB012F208A110A12602C8312031384
:100880003308F30080307302013003180301003C89
:100890000319562CD901DA01F3013308803E0318FD
:1008A000F30ADB002F208A110A12602C8312031333
:1008B000D9010130DA003308DB002F208A110A1237
:1008C000831203133408003C0130031D0301003C74
:1008D0000319722C0130D900DA01DB012F208A11B3
:1008E0000A12962C831203133408F300803073022B
:1008F000013003180301003C03198B2C0130D9008F
:10090000DA01F3013408803E0318F30ADB002F20DC
:100910008A110A12962C013083120313D900013078
:10092000DA003408DB002F208A110A128312031325
:100930003508A0003608A1003708A2003808A30037
:100940003908A4003A08A5003B08003C0319AB2C69
:1009500002308904AF2CFD30831203138905831202
:1009600003134408B43C0319B72C0030BE2C831287
:10097000031345085F3C0130031D03018312031379
:10098000C40A0319C50A003C0319DA2C5E08003CAE
:100990000130031D0301003C0319D02C0614D32C95
:1009A000831203130610831203135E08013CDE005A
:1009B000C401C501831203134008703C0319E22CE3
:1009C0000030E92C831203134108173C0130031D4A
:1009D000030183120313C00A0319C10A003C03195F
:1009E0007D2BA001A101A201A301A401A501D901B0
:1009F000DA01DB012F208A110A120130831203135E
:100A0000D900DA01DB012F208A110A127D2B0800A0
:00000001FF
