:040000008A01332816
:08000800F500F50E030EF600F1
:10001000040EF7000A0EF8008A01FC00030E83129A
:100020000313FE000B082439003C031D2B208A110A
:100030000A127E0E8300FC0E7C0E780E8A00770E6C
:100040008400760E8300750E09006F2889289A288F
:10005000DA28E6280829282AE02A052B0F2B292B45
:10006000652B772BCF2B013083120313C900CA01F4
:10007000FF30CC000130CD00A001A101A201A301FD
:10008000A401A501A601A701A801A901AA01AB012C
:10009000AC01AD01AE01AF01CE01D001D101BE0175
:1000A000BF01C001C101D201D30130208A110A125F
:1000B0000A3083120313D40025208A110A12282043
:1000C0008A110A128B173F3083120313CC00831658
:1000D0009F012E208A110A1232208A110A128312DD
:1000E000031394018C0183168C120C120708C0387C
:1000F00087008312540883169900243098009030AA
:10010000831298001A08C7001A08C7001A08C70007
:100110000800831203130C081039FF390130031D46
:100120000030003C031995288928831203135508D1
:1001300099000800013083120313C200C301831227
:1001400003134208013C0319A7280030AE2883128C
:1001500003134308003C0130031D0301003C031955
:10016000D82883120313C201C301981CC328181294
:100170001A08C7001A08C7001A08C7001816013065
:10018000C200C3019F2883120313181DCD281A082B
:10019000C7000130C200C301D728831203138C1E8D
:1001A000D7281A08C7001A08C800003008009F287E
:1001B00001300800843083160313810088018B16F8
:1001C0000130FA0029208A110A120800B930FB0018
:1001D000000000000000000000000000000000001F
:1001E000000000000000000000000000000000000F
:1001F00000000000000000000000000000000000FF
:100200000000FB0BE9280000FA0BE62800000800BC
:10021000831203135608283E840083130008003C11
:100220000130031D0301003C031927298312031326
:100230005608203E840083130008F0008312031345
:100240005608283E8400700883138000202A8312F9
:1002500003135608203E840083130008003C01303D
:10026000031D0301003C0319382900300800202A2F
:10027000831203135608203E840083130008F00005
:10028000831203135608283E84008313000870026B
:10029000013003180301003C0319AB298312031337
:1002A0005608283E840083130008F00083120313CD
:1002B0005608203E84008313000870028312031343
:1002C000D70003305702013003180301003C031923
:1002D00077295608203E840083130008F00083121B
:1002E00003135608283E840070088313800083128D
:1002F00003135708083C013003180301003C03199D
:1003000094295608283E840083130008043CF0001A
:100310007009013EF000831203135608283E840042
:10032000700883138000202A831203135608283E86
:10033000840083130008F000831203135708F100B0
:10034000710C7F397002F0005608283E8400700856
:1003500083138000202A831203135608283E84004A
:1003600083130008F000831203135608203E840014
:10037000831300087002013003180301003C0319C5
:10038000202A831203135608203E8400831300089A
:10039000F000831203135608283E840083130008DC
:1003A000700283120313D700033057020130031881
:1003B0000301003C0319EA295608203E84008313F8
:1003C0000008F000831203135608283E84007008CA
:1003D00083138000831203135708083C013003186D
:1003E0000301003C0319072AF0015608283E840047
:1003F00083130008043E0318F00AF000831203136D
:100400005608283E8400700883138000202AF001DB
:10041000831203135608283E840083130008F1005A
:10042000831203135708F200720C7F397107031807
:10043000F00AF0005608283E8400700883138000FC
:10044000831203135608283E840083130008080013
:10045000831203134E104908013C0130031D0301B0
:10046000003C0319932A4A08053C0130031D03018F
:10047000003C0319462A4A08D6002A208A110A128B
:1004800083120313CB008C308100722A8312031372
:100490004A08043C0130031D0301003C03195B2A98
:1004A0004A08203E84008313000883120313CB0004
:1004B00096308100722A831203134A08D6002A203C
:1004C0008A110A1283120313CB00F0017830F10075
:1004D0004B08FF3CF200F20C720C3F397107031815
:1004E000F00A8100831203134B08003C013003190A
:1004F0000301FF390319862A4C084D05003C0130E1
:1005000003190301FF390319862A0130003C03193E
:100510008D2A831203134D088804023083120313BB
:10052000C9004E14DE2A831203134908023C01302D
:10053000031D0301003C0319A32A4B08FF3C810063
:100540000330C900DE2A831203134908033C01303B
:10055000031D0301003C0319DE2A4C084D05003C35
:10056000013003190301003C0319B82A4D0988051D
:10057000831203134A08203E840083130008831269
:1005800003138100F0014A08013E0318F00ACA0073
:100590004A080739CA004D08F000700DFE39CD0039
:1005A0004D08003C0130031D0301003C0319DA2A09
:1005B0000130CD00013083120313C9000B11080074
:1005C000831203135808F300F30DF30D730DF8397C
:1005D00038399F0089309F040C30C6002D208A11C5
:1005E0000A120430831203139F04831203131F1D86
:1005F000FA2AF52A043083120313C6002D208A112B
:100600000A12831203131E08080002308312031318
:10061000C60200000000C60B092B00000800831270
:10062000031397019D019101FF30831692008312FD
:1006300095019B0183160708D8398700861005129B
:100640003C308312CF004F0897004F089D001215D1
:100650000800831203135908003C0130031D0301F5
:10066000003C0319472B5A08003C0130031D0301CD
:10067000003C03193E2B87168610422B831203136E
:1006800087128614831203135B089500642B831270
:1006900003135908013C0130031D0301003C0319F9
:1006A000642B5A08003C0130031D0301003C031970
:1006B0005C2B07140512602B831203130710051619
:1006C000831203135B089B0008000130FF3C043CCD
:1006D000F3007309013E83120313DC005C088316E8
:1006E000860583125C08860583168801080083123C
:1006F00003135D08003C0130031D0301003C031996
:10070000872B06110130D100C001C1018A2B831251
:10071000031306158312031351080319C92B013063
:10072000D8002C208A110A1283120313D200013040
:10073000FA0029208A110A12053083120313D80007
:100740002C208A110A1283120313D3005D08D500EE
:1007500026208A110A12831203135208D50026207C
:100760008A110A12831203135308D50026208A1116
:100770000A12F301831203135D0852070318F30AE8
:100780005307F4000318F30A7408D50026208A11D1
:100790000A1283120313D001BE01BF0108008312A5
:1007A0000313DE01C401C501013083168900023044
:1007B0008312890427208A110A12003C0319092C8C
:1007C000831203135008003C013003180301003C5E
:1007D00003190D2D3F08003C0130031CF72B00309E
:1007E000031DF72B3E08F53C01300318030183126B
:1007F0000313BE0A0319BF0A003C0319082C500852
:10080000FF3CDD0031208A110A1283120313D0014C
:100810000D2D831203134808F3005008D00A303E10
:1008200084007308831380008312031350080E3C66
:100830000130031D0301003C03190D2D3008703CED
:10084000013003190301FF39031D2E2C3108473CE9
:10085000013003190301FF3903192F2C0130FF392F
:10086000031D3C2C831203133208683C013003192A
:100870000301FF3903193D2C0130FF39031D4A2CB8
:10088000831203133D084E3C013003190301FF3965
:1008900003194B2C0130003C0319562C02308312F3
:1008A0000313DD0031208A110A12DA2B831203139D
:1008B000DF010330E0000C308312031360020130CB
:1008C00003180301003C0319752CF3015F08F400C1
:1008D0006008303E84008313000874070318F30A8D
:1008E00083120313DF00E00A5B2C831203133C081E
:1008F0005F02013003190301003C0319852C03300A
:10090000DD0031208A110A12DA2B83120313DD0174
:1009100031208A110A12831203133308003C01307C
:10092000031D0301003C03199C2CD901DA01DB01F2
:100930002F208A110A12BE2C831203133308F300EE
:1009400080307302013003180301003C0319B42CFA
:10095000D901DA01F3013308803E0318F30ADB0002
:100960002F208A110A12BE2C83120313D9010130E1
:10097000DA003308DB002F208A110A1283120313D6
:100980003408003C0130031D0301003C0319D02C46
:100990000130D900DA01DB012F208A110A12F42C70
:1009A000831203133408F3008030730201300318FC
:1009B0000301003C0319E92C0130D900DA01F301ED
:1009C0003408803E0318F30ADB002F208A110A1234
:1009D000F42C013083120313D9000130DA003408FB
:1009E000DB002F208A110A12831203133508A0009E
:1009F0003608A1003708A2003808A3003908A4006F
:100A00003A08A5003B08003C0319092D023089046F
:100A10000D2DFD308312031389058312031344083F
:100A2000B43C0319152D00301C2D83120313450807
:100A30005F3C0130031D030183120313C40A031931
:100A4000C50A003C0319382D5E08003C0130031D27
:100A50000301003C03192E2D0614312D83120313BC
:100A60000610831203135E08013CDE00C401C501B9
:100A7000831203134008703C0319402D0030472DAA
:100A8000831203134108173C0130031D0301831235
:100A90000313C00A0319C10A003C0319DA2BA00191
:100AA000A101A201A301A401A501D901DA01DB0181
:100AB0002F208A110A12013083120313D900DA01A0
:0C0AC000DB012F208A110A12DA2B08003B
:00000001FF
