:040000008A01342815
:08000800F500F50E030EF600F1
:10001000040EF7000A0EF8008A01FC00030E83129A
:100020000313FE000B082439003C031D2C208A1109
:100030000A127E0E8300FC0E7C0E780E8A00770E6C
:100040008400760E8300750E090070288A289B288C
:10005000DB28E72809292B2A4D2B052C2A2C342CA8
:100060004E2C8A2C9C2CF42C013083120313C900D3
:10007000CA01FF30CC000130CD00A001A101A201D6
:10008000A301A401A501A601A701A801A901AA0134
:10009000AB01AC01AD01AE01AF01CE01D001D10188
:1000A000BE01BF01C001C101D201D30131208A11BB
:1000B0000A120A3083120313D40025208A110A126F
:1000C00028208A110A128B173F3083120313CC00A9
:1000D00083169F012F208A110A1233208A110A12D7
:1000E0008312031394018C0183168C120C120708DF
:1000F000C038870083125408831699002430980072
:100100009030831298001A08C7001A08C7001A080E
:10011000C7000800831203130C081039FF3901309F
:10012000031D0030003C031996288A28831203130C
:10013000550899000800013083120313C200C3015F
:10014000831203134208013C0319A8280030AF288A
:10015000831203134308003C0130031D0301003CDC
:100160000319D92883120313C201C301981CC428A0
:1001700018121A08C7001A08C7001A08C70018166C
:100180000130C200C301A02883120313181DCE281A
:100190001A08C7000130C200C301D8288312031314
:1001A0008C1ED8281A08C7001A08C800003008009A
:1001B000A0280130080084308316031381008801D1
:1001C0008B160130FA0029208A110A120800B93072
:1001D000FB00000000000000000000000000000024
:1001E000000000000000000000000000000000000F
:1001F00000000000000000000000000000000000FF
:1002000000000000FB0BEA280000FA0BE7280000C2
:100210000800831203135608283E84008313000845
:10022000003C0130031D0301003C031928298312FF
:1002300003135608203E840083130008F000831245
:1002400003135608283E8400700883138000232A75
:10025000831203135608203E840083130008003CD9
:100260000130031D0301003C031939290030080047
:10027000232A831203135608203E840083130008A8
:10028000F000831203135608283E840083130008ED
:100290007002013003180301003C0319AD298312D9
:1002A00003135608283E840083130008F0008312CD
:1002B00003135608203E8400831300087002831243
:1002C0000313D70003305702013003180301003C29
:1002D000031979295608203E840083130008F00092
:1002E000831203135608283E84007008831380008D
:1002F000232A831203135708083C01300318030113
:10030000003C031996295608283E840083130008F0
:10031000043CF0007009013EF000831203135608FC
:10032000283E8400700883138000AC2983120313D5
:100330005608283E840083130008F000831203133C
:100340005708F100710C7F397002F0005608283E02
:100350008400700883138000232A83120313560835
:10036000283E840083130008F0008312031356080C
:10037000203E84008313000870020130031803013B
:10038000003C0319232A831203135608203E8400DD
:1003900083130008F000831203135608283E8400DC
:1003A00083130008700283120313D700033057022F
:1003B000013003180301003C0319ED295608203EC3
:1003C000840083130008F000831203135608283EAC
:1003D0008400700883138000232A831203135708B4
:1003E000083C013003180301003C03190A2AF001FC
:1003F0005608283E840083130008043E0318F00AC0
:10040000F000831203135608283E840070088313FB
:100410008000232AF001831203135608283E84002B
:1004200083130008F100831203135708F200720CC3
:100430007F3971070318F00AF0005608283E84003F
:10044000700883138000831203135608283E84002B
:10045000831300080800831203135808283E840001
:1004600083130008003C0130031D0301003C031905
:100470004A2A831203135808203E8400831300087D
:10048000F000831203135808283E84007008831379
:100490008000452B831203135808203E84008313E9
:1004A0000008003C0130031D0301003C03195B2AD6
:1004B00000300800452B831203135808203E8400A7
:1004C00083130008F000831203135808283E8400A9
:1004D000831300087002013003180301003C031964
:1004E000CF2A831203135808283E84008313000880
:1004F000F000831203135808203E84008313000881
:10050000700283120313D90002305902013003181C
:100510000301003C03199B2A5808203E84008313E2
:100520000008F000831203135808283E8400700866
:1005300083138000452B831203135908063C0130B6
:1005400003180301003C0319B82A5808283E840008
:1005500083130008033CF0007009013EF000831291
:1005600003135808283E8400700883138000CE2AA5
:10057000831203135808283E840083130008F000F8
:10058000831203135908F100710C7F397002F000D7
:100590005808283E8400700883138000452B83127E
:1005A00003135808283E840083130008F0008312C8
:1005B00003135808203E84008313000870020130A2
:1005C00003180301003C0319452B83120313580839
:1005D000203E840083130008F000831203135808A0
:1005E000283E840083130008700283120313D9008D
:1005F00002305902013003180301003C03190F2B8C
:100600005808203E840083130008F000831203136F
:100610005808283E8400700883138000452B8312FD
:1006200003135908063C013003180301003C031969
:100630002C2BF0015808283E840083130008033E49
:100640000318F00AF000831203135808283E8400B0
:10065000700883138000452BF001831203135808A0
:10066000283E840083130008F10083120313590805
:10067000F200720C7F3971070318F00AF000580875
:10068000283E8400700883138000831203135808E7
:10069000283E8400831300080800831203134E10C1
:1006A0004908013C0130031D0301003C0319B82B2C
:1006B0004A08053C0130031D0301003C03196B2B64
:1006C0004A08D8002B208A110A1283120313CB0088
:1006D0008C308100972B831203134A08043C0130AD
:1006E000031D0301003C0319802B4A08203E8400AF
:1006F0008313000883120313CB0096308100972BDD
:10070000831203134A08D6002A208A110A12831280
:100710000313CB00F0017830F1004B08FF3CF200EE
:10072000F20C720C3F3971070318F00A8100831232
:1007300003134B08003C013003190301FF3903196F
:10074000AB2B4C084D05003C013003190301FF3968
:100750000319AB2B0130003C0319B22B8312031396
:100760004D088804023083120313C9004E14032C71
:10077000831203134908023C0130031D0301003CAE
:100780000319C82B4B08FF3C81000330C900032C20
:10079000831203134908033C0130031D0301003C8D
:1007A0000319032C4C084D05003C013003190301CB
:1007B000003C0319DD2B4D098805831203134A08F9
:1007C000203E840083130008831203138100F0018C
:1007D0004A08013E0318F00ACA004A080739CA004D
:1007E0004D08F000700DFE39CD004D08003C013081
:1007F000031D0301003C0319FF2B0130CD00013024
:1008000083120313C9000B110800831203135A0843
:10081000F300F30DF30D730DF83938399F0089306B
:100820009F040C30C6002E208A110A120430831255
:1008300003139F04831203131F1D1F2C1A2C043053
:1008400083120313C6002E208A110A128312031387
:100850001E080800023083120313C60200000000C5
:10086000C60B2E2C000008008312031397019D0174
:100870009101FF3083169200831295019B0183162C
:100880000708D8398700861005123C308312CF0044
:100890004F0897004F089D0012150800831203139C
:1008A0005B08003C0130031D0301003C03196C2C64
:1008B0005C08003C0130031D0301003C0319632C5C
:1008C00087168610672C83120313871286148312EF
:1008D00003135D089500892C831203135B08013C08
:1008E0000130031D0301003C0319892C5C08003C06
:1008F0000130031D0301003C0319812C071405126C
:10090000852C8312031307100516831203135D0849
:100910009B0008000130FF3C043CF3007309013EDA
:1009200083120313DE005E088316860583125E08B9
:100930008605831688010800831203135F08003CB4
:100940000130031D0301003C0319AC2C06110130DA
:10095000D100C001C101AF2C83120313061583120D
:10096000031351080319EE2C0530DA002D208A11EB
:100970000A1283120313D3000130FA0029208A11CE
:100980000A12013083120313DA002D208A110A1291
:1009900083120313D2005F08D50026208A110A12A1
:1009A000831203135208D50026208A110A128312DB
:1009B00003135308D50026208A110A12F30183126B
:1009C00003135F0852070318F30A5307F4000318D0
:1009D000F30A7408D50026208A110A128312031321
:1009E000D001BE01BF01080083120313E001C4015E
:1009F000C501013083168900023083128904272043
:100A00008A110A12003C03192D2D8312031350087A
:100A1000003C013003180301003C0319312E3F084C
:100A2000003C0130031C1C2D0030031D1C2D3E0812
:100A3000F53C01300318030183120313BE0A0319A6
:100A4000BF0A003C03192C2D0130DF0032208A112F
:100A50000A1283120313D001312E831203134808A4
:100A6000F3005008D00A303E8400730883138000DE
:100A70008312031350080E3C0130031D0301003C98
:100A80000319312E3008703C013003190301FF397E
:100A9000031D522D3108473C013003190301FF3972
:100AA0000319532D0130FF39031D602D83120313E9
:100AB0003208683C013003190301FF390319612D25
:100AC0000130FF39031D6E2D831203133D084E3C88
:100AD000013003190301FF3903196F2D0130003C68
:100AE00003197A2D023083120313DF0032208A119A
:100AF0000A12FF2C83120313E1010330E2000C30D1
:100B0000831203136202013003180301003C03192E
:100B1000992DF3016108F4006208303E84008313CC
:100B2000000874070318F30A83120313E100E20AB2
:100B30007F2D831203133C08610201300319030166
:100B4000003C0319A92D0330DF0032208A110A125C
:100B5000FF2C83120313DF0132208A110A12831241
:100B600003133308003C0130031D0301003C03194B
:100B7000C02DDB01DC01DD0130208A110A12E22DDB
:100B8000831203133308F30080307302013003181B
:100B90000301003C0319D82DDB01DC01F30133080C
:100BA000803E0318F30ADD0030208A110A12E22D7C
:100BB00083120313DB010130DC003308DD00302039
:100BC0008A110A12831203133408003C0130031DFA
:100BD0000301003C0319F42D0130DB00DC01DD01D1
:100BE00030208A110A12182E831203133408F300DE
:100BF00080307302013003180301003C03190D2EED
:100C00000130DB00DC01F3013408803E0318F30AF5
:100C1000DD0030208A110A12182E013083120313CE
:100C2000DB000130DC003408DD0030208A110A12BC
:100C3000831203133508A0003608A1003708A2006C
:100C40003808A3003908A4003A08A5003B08003C76
:100C500003192D2E02308904312EFD308312031327
:100C60008905831203134408B43C0319392E00305C
:100C7000402E8312031345085F3C0130031D03011E
:100C800083120313C40A0319C50A003C03195C2E1E
:100C90006008003C0130031D0301003C0319522E83
:100CA0000614552E831203130610831203136008D3
:100CB000013CE000C401C501831203134008703CED
:100CC0000319642E00306B2E831203134108173C66
:100CD0000130031D030183120313C00A0319C10A63
:100CE000003C0319FF2CA001A101A201A301A40152
:100CF000A501DB01DC01DD0130208A110A1201307F
:100D000083120313DB00DC01DD0130208A110A129B
:040D1000FF2C0800AC
:00000001FF
